:020000040800F2
:10000000180B01205D0200089F03000897030008F9
:100010009B0300088F030008110600080000000081
:100020000000000000000000000000009D0100082A
:100030009303000800000000F9010008A503000870
:1000400077020008770200087702000877020008AC
:10005000770200087702000877020008770200089C
:10006000770200087702000877020008770200088C
:10007000770200087702000877020008770200087C
:10008000770200087702000877020008770200086C
:10009000770200087702000877020008770200085C
:1000A000770200087702000877020008770200084C
:1000B000770200087702000877020008770200083C
:1000C000770200087702000877020008770200082C
:1000D000770200086105000877020008770200082F
:1000E000770200087702000877020008770200080C
:1000F00077020008770200087702000877020008FC
:1001000077020008770200087702000877020008EB
:1001100077020008770200087702000877020008DB
:1001200077020008770200087702000877020008CB
:1001300077020008770200087702000877020008BB
:1001400077020008770200087702000877020008AB
:10015000770200087702000877020008B905000856
:10016000770200087702000877020008770200088B
:1001700077020008770200087702000800000000FC
:100180007702000877020008DFF80CD000F0CEF804
:100190000048004775130008180B01202C4B196804
:1001A0000868B0E8F04F80F30988BFF36F8F4FF015
:1001B000000080F3118870470000000008480068C4
:1001C000006880F308884FF0000080F3148862B65E
:1001D00061B6BFF34F8FBFF36F8F00DF00BF00BF6B
:1001E00008ED00E0DFF80C00016841F470010160E7
:1001F000704700BF88ED00E0EFF30980BFF36F8F19
:10020000134B1A681EF0100F08BF20ED108A20E96A
:10021000F04F106009B44FF0500080F31188BFF325
:100220004F8FBFF36F8F02F0D1FB4FF0000080F3D0
:10023000118809BC19680868B0E8F04F1EF0100F6B
:1002400008BFB0EC108A80F30988BFF36F8F704746
:1002500020000020EFF3058070470000064880472B
:1002600006480047FEE7FEE7FEE7FEE7FEE7FEE79B
:10027000FEE7FEE7FEE7FEE7D90300088901000874
:1002800040EA01039B0703D009E008C9121F08C018
:10029000042AFAD203E011F8013B00F8013B521E98
:1002A000F9D27047D2B201E000F8012B491EFBD20F
:1002B00070470022F6E710B513460A460446194671
:1002C000FFF7F0FF204610BD2DE9F05F0546002046
:1002D00092469B4688460646814640241BE02846B7
:1002E00041464746224600F042F853465A46C01A55
:1002F000914110D311461846224600F029F82D1AD4
:1003000067EB01084F4622460120002100F020F84B
:1003100017EB00094E41201EA4F10104DFDC484622
:1003200031462A464346BDE8F09F0000064C074D83
:1003300006E0E06840F0010394E8070098471034B5
:10034000AC42F6D3FFF724FFEC3100080C32000872
:10035000202A04DB203A00FA02F100207047914085
:10036000C2F1200320FA03F3194390407047202A7A
:1003700004DB203A21FA02F00021704721FA02F34F
:10038000D040C2F12002914008431946704700BF97
:10039000FEE700BFFEE700BFFEE700BFFEE700BFCD
:1003A000FEE7000010B500BF502080F31188BFF3B6
:1003B0004F8FBFF36F8F00BF02F0F4FC18B14FF006
:1003C00080500449086000BF002080F3118800BFFE
:1003D00010BD000004ED00E01CB55D48006840F46D
:1003E00070005B4908605B48006840F001005949B3
:1003F000086000BF5748006800F002000028F9D0EC
:1004000054480830006800F00C0008286ED100BF86
:100410000020019002E00198401C019001985028B2
:10042000F9D34C48083000680090009820F0F000A4
:100430000090009840F080000090464908310098F4
:1004400008600020019002E00198401C0190019892
:100450005028F9D33F48083000680090009820F0F9
:10046000F0000090009840F0900000903949083169
:10047000009808600020019002E00198401C019063
:1004800001985028F9D3334808300068009000984C
:1004900020F0F0000090009840F0A00000902D495E
:1004A0000831009808600020019002E00198401C8B
:1004B000019001985028F9D3264808300068009030
:1004C000009820F0F0000090009840F0B0000090FC
:1004D00020490831009808600020019002E001984E
:1004E000401C019001985028F9D300BF19480830EA
:1004F000006820F00300174908310860C82000F0A8
:10050000EDFA14480068144908401249086008468A
:10051000006820F48020086000200E49083108603F
:1005200000BF0C480830006800200028F9D10B48B3
:100530000849091D0860002006490C31086001F0D7
:1005400065FE00214FF0006000F0D8FF1CBD0000E8
:1005500088ED00E000380240FFFFF6FE1030002476
:1005600010B51049104802F061F8D0B10D490E489D
:1005700002F04FF840F206310B4802F030F80B4918
:1005800009880B4A12888818C11700EB11610912FB
:10059000A0EB0121054A118000200649087001F0F6
:1005A00039FE10BD06030600001001400A000020BD
:1005B0000C0000200E00002010B51049104802F079
:1005C00035F8D0B10D490E4802F023F840F206315B
:1005D0000B4802F004F80B4909880B4A1288881866
:1005E000C11700EB11610912A0EB0121054A11802E
:1005F00000200649087001F06BFE10BD06030600DE
:100600000014014016000020180000201A000020ED
:1006100000BFFEE70FB41CB50246002007AC00295E
:100620000BD0491ECDE90021054B6A4621460698AC
:1006300000F018F8009A002111701CBC5DF814FB42
:10064000C70A000802E008C8121F08C1002AFAD130
:1006500070477047002001E001C1121F002AFBD142
:10066000704700002DE9FF4F8DB00F46054600266C
:1006700006E025280BD0DDE90F1290476D1C761C93
:1006800028780028F5D111B03046BDE8F08F00245D
:10069000A246A1460122EC4900E0044315F8013FBF
:1006A000203B02FA03F00842F7D128782A2810D01C
:1006B0006FF02F022878A0F13001092914D80AEB35
:1006C0008A0102EB410144F0020400EB010A6D1CB7
:1006D000F0E701CF5FEA000A03D544F40054CAF101
:1006E000000A44F002046D1C28782E2817D115F852
:1006F000010F44F004042A280ED06FF02F0228784E
:10070000A0F1300109290AD809EB890102EB410166
:1007100000EB01096D1CF2E757F8049B6D1C28786B
:100720006C280FD006DC4C2817D068280DD06A281A
:1007300014D104E0742810D07A280FD10DE044F4CD
:1007400000140AE044F4801401E044F44014697891
:10075000814202D104F580146D1C6D1C2A786E2A2A
:100760001FD00CDC632A31D004DC002A8BD0582A3D
:1007700011D1A3E0642A68D0692A0CD165E0732AFC
:100780002ED004DC6F2A73D0702A04D19BE0752A26
:100790006FD0782A6ED01046DDE90F129047761C94
:1007A00050E1C4F30250022806D0032809D00428DF
:1007B00001CF09D0066045E101CFF117C0E9006122
:1007C00040E101CF06803DE106703BE117F8040BE4
:1007D0008DF8000000208DF80100EB46012003E0B9
:1007E00057F804BB4FF0FF3061074FF0000102D40F
:1007F0000DE008F10101884649450FDA8045F8DB34
:100800001BF808100029F4D108E008F1010188461E
:100810008142FADB1BF808100029F6D1DDE90F232D
:10082000AAEB08008146214600F036F9304400EB7F
:10083000080604E0DDE90F121BF8010B9047B8F140
:100840000108F7D221464846F7E00A21C4F30253D3
:100850004FF0000B0891022B04D001CFC117032BDE
:1008600009D00AE0FF1D27F00707F7E8020108E0BA
:1008700032E01FE020E000B2C117042B01D140B2EA
:10088000C117031E71F1000307DA4FF0000CD0EB23
:100890000C006CEB01012D2302E0230504D52B2372
:1008A0008DF82430012303E0E30701D02023F7E78C
:1008B000984658E00A2110E010210EE010204FF079
:1008C000000B08900CE010214FF0000B44F00404E2
:1008D0004FF00809089103E008214FF0000B089140
:1008E000C4F30253022B04D001CF0021032B06D006
:1008F00006E0FF1D27F00707F7E8020103E080B2DA
:10090000042B00D1C0B24FF0000823072BD5702A6A
:1009100007D0DDF820C08CF0100C5CEA0B0C05D081
:100920000EE040238DF82430012308E050EA010353
:1009300006D030238DF824308DF8252002239846E8
:10094000DDF820C08CF0080C5CEA0B0C0BD150EAEF
:10095000010301D1630706D530238DF824304FF011
:100960000108A9F10109582A04D038A20B9208AA5B
:100970000A920BE03AA2F9E75B46089AFFF7A4FC5B
:100980000B9B9B5C0A9A521E0A92137050EA01025A
:10099000F2D10A98ADEB000000F1200B600702D500
:1009A00024F4803401E04FF00109D94502DDA9EBC0
:1009B0000B0000E0002000EB0B0141440890AAEB83
:1009C000010AE00306D4DDE90F232146504600F07A
:1009D00063F806444FF0000908E009A911F809007E
:1009E000DDE90F12904709F10109761CC145F4DBDE
:1009F000E0030CD5DDE90F232146504600F04CF80A
:100A0000064404E0DDE90F1230209047761C089977
:100A1000481E08900029F5DC08E00A980A99007839
:100A2000491C0A91DDE90F129047761CBBF10001C9
:100A3000ABF1010BF1DC21465046DDE90F2300F05C
:100A400019F806446D1C1BE60928010030313233C9
:100A500034353637383961626364656600000000FA
:100A600030313233343536373839414243444546E4
:100A7000000000002DE9F041044600251E461746FF
:100A8000880404D405E039462020B0476D1C641E5C
:100A9000F9D52846BDE8F0812DE9F041044600254E
:100AA0001E469046C80301D5302700E02027880461
:100AB00004D505E041463846B0476D1C641EF9D5A3
:100AC0002846BDE8F0814A68002A06D00A68531C0F
:100AD0000B6010704868401E4860704708B50021E0
:100AE000009102E00099491C009100EB8001009AFE
:100AF000B2EB410FF6D308BD00250026002700BF4A
:100B00004FF48071194800F06BFA0446002C03DDA5
:100B10002146164800F03AFB761CC82E11D3002659
:100B200002F03AF94FF47A71B0FBF1F8434610A2A3
:100B300020211248FFF76EFD84B221460F4800F0D5
:100B400025FB6D1C322D0CD300252FB14FF4807086
:100B500000F0FCFB002704E04FF4807000F000FC84
:100B600001270A2001F08CFECAE700009C0000204B
:100B700074733A256C750D0A000000009C0100207A
:100B800010B501EB4102D30000F11002D25822F05F
:100B9000010301EB4102D40000F11002135110BD1A
:100BA00010B501EB4102D30000F11002D25842F01F
:100BB000010301EB4102D40000F11002135110BDFA
:100BC00030B5134601EB4104E50000F11004625911
:100BD00022F0606242EA436201EB4104E50000F169
:100BE0001004625130BD000000B589B040F61640D7
:100BF00001F0DCF90221254800F0A2F8684600F077
:100C0000CDF90020069022480290002003904FF476
:100C1000807007901F4800900120019000200490F0
:100C200005904FF4003008906A460221174800F002
:100C300009F9042202211548FFF7C2FF02211348D7
:100C4000FFF7AEFF0721114800F07AF8684600F080
:100C5000A5F94020069000200290039007900D48CF
:100C60000090012001900020049001200590400494
:100C700008906A460721054800F0E4F8042207219D
:100C80000248FFF79DFF09B000BD0000006402406C
:100C9000BC0100200410014000B589B001212548A5
:100CA00000F04EF8684600F079F9002006902248DE
:100CB0000290002003904FF4807007901F4800902E
:100CC000012001900020049005904FF4003008901E
:100CD0006A460121174800F0B5F8052201211548A0
:100CE000FFF76EFF01211348FFF75AFF0621114855
:100CF00000F026F8684600F051F9402006900020E8
:100D00000290039007900D48009001200190002070
:100D1000049001200590400408906A460621054889
:100D200000F090F8052206210248FFF749FF09B0BC
:100D300000BD000000640240BC0300200414014018
:100D400010B501EB4102D30000F11002D25822F09D
:100D5000010301EB4102D40000F110021351002302
:100D600001EB4102D40000F11002135101EB4102EA
:100D7000D40000F11402135101EB4102D40000F140
:100D80001802135101EB4102D40000F11C0213516F
:100D900001EB4102D40000F120021351212301EBA9
:100DA0004102D40000F12402135104290CDA01EBB2
:100DB00041025300C1F3400203EB82033D229A40FB
:100DC00083681A4382600DE00A1FD1B201EB410231
:100DD0005300C1F3400203EB82033D229A40C368F3
:100DE0001A43C26010BD10B504290CDA01EB4103AF
:100DF0005C00C1F3400304EB830302FA03F384684D
:100E0000234383600DE00B1FD9B201EB41035C006B
:100E1000C1F3400304EB830302FA03F3C4682343E2
:100E2000C36010BD30B532B101EB4104E50000F103
:100E30002004635105E001EB4104E50000F11C04CE
:100E4000635130BD70B501EB4104E50000F12404AD
:100E5000645924F0040501EB4104E60000F1240488
:100E6000A55101EB4104E60000F118041568A551F5
:100E700001EB4104E60000F11C049568A55101EB6B
:100E80004104E60000F11404D569A55101EB4104C9
:100E9000E50000F1100463593F4C2340146944EA13
:100EA0008404156A2C4395692C43234301EB4104C8
:100EB000E50000F110046351546874B901EB41047A
:100EC000E50000F11004645944F4007501EB41049D
:100ED000E60000F11004A5511FE05468012C0ED16A
:100EE00001EB4104E50000F11004645924F400759D
:100EF00001EB4104E60000F11004A5510DE001EB07
:100F00004104E50000F11004645944F4004501EB8C
:100F10004104E60000F11004A551D46874B901EB56
:100F20004104E50000F11004645944F4806501EBCC
:100F30004104E60000F11004A5510DE001EB41046D
:100F4000E50000F11004645924F4806501EB4104CC
:100F5000E60000F11004A551546974B901EB410495
:100F6000E50000F11004645944F4807501EB41047C
:100F7000E60000F11004A5510DE001EB4104E5008D
:100F800000F11004645924F4807501EB4104E6007B
:100F900000F11004A55170BD3F87FCFF00210160E6
:100FA00001214160002181600121C16000210161B6
:100FB0000121416100218161C1610162704710B569
:100FC00001EB4103DC0000F114031A5110BD02468D
:100FD00001EB4100C30002F11400C058704700004B
:100FE0002DE9F04180460E4602212248FFF7EFFF2F
:100FF000C0F5807020490880084607881F4800888F
:10100000874204DB1D480088381A84B205E01B487B
:101010000088C0F58070384484B214B90020BDE85F
:10102000F081B44200DD344600250EE01349098802
:101030004819C11700EB11610912A0EB0121104AF8
:10104000515C08F80510681C85B2A542EEDB0B491F
:1010500009880819C11700EB11610912A0EB0121E1
:10106000064A118007480068401C0649086020466F
:10107000D5E70000006402400000002002000020CC
:10108000BC0100200400002010B54FF4406000F0C7
:101090008DFF40F6014000F089FF40F6024000F06D
:1010A00085FF41F2041000F081FF0C230022012192
:1010B000324800F0E6F80C23022200212F4800F00D
:1010C00007F904212D4800F0DAF808212B4800F038
:1010D000D4F80C2300221146294800F0D2F84FF42E
:1010E000806300221146254800F0CBF84FF40073CE
:1010F00000220221214800F0C4F84FF400720721B9
:101100001E4800F08BF80823012202211D4800F040
:10111000B8F8082207211B4800F080F81A4801F0AF
:10112000ADF94FF41651184801F030F90021164876
:1011300001F099FA0021144801F0B5FA0021124893
:1011400001F0A1FA0821104801F0A5FA04210E4887
:1011500001F091FAFFF748FD40210B4801F0FCF93E
:101160008021094801F002FA00220521252000F023
:1011700037F9054801F004FA10BD000000000240F4
:101180000008024000040240001001402DE9F04731
:1011900006460F4600BFEFF31080814672B61C482A
:1011A00000881C490988884208DB194800881949C9
:1011B0000988401AC0F1FF0085B206E01548008892
:1011C00013490988401A401E85B262B6AF4201DC5D
:1011D000384600E028468046002411E0305D0E4984
:1011E0000B4A128888540A490988481CC11700EB29
:1011F00011610912A0EB0121054A1180601C84B223
:101200004445EBDB01F006F84046BDE8F0870000FE
:10121000080000200A000020BC020020F0B50346B0
:101220001C6A5D6A00200DE00126864016403EB132
:1012300087000F26BE40B443860001FA06F6344309
:10124000461CB0B20828EFD3082011E001268640E2
:1012500016405EB1A0F10806B7000F26BE40B543A8
:10126000A0F10806B60001FA06F63543461CB0B2F6
:101270001028EBD31C625D62F0BD81627047816112
:101280007047F0B504460D4616462168E268002016
:1012900019E0012787401F409FB14FEA400C032708
:1012A00007FA0CF7B943470005FA07F739434FEA45
:1012B000400C032707FA0CF7BA43470006FA07F772
:1012C0003A43471CB8B21028E3D32160E260F0BD76
:1012D000F0B50C461546012C03D146681E43466006
:1012E00002E046689E434660826800210DE00126C8
:1012F0008E401E403EB14F000326BE40B2434E001A
:1013000005FA06F632434E1CB1B21029EFD38260C3
:10131000F0BD000010B540F6044000F047FE4FF469
:101320007063012211460848FFF7ABFF4FF470636A
:10133000002211460448FFF7CBFF4FF470610248CA
:10134000FFF79DFF10BD00000010024010B50446DD
:1013500021460248FFF793FF10BD00000010024035
:1013600010B5044621460248FFF787FF10BD000074
:10137000001002401CB54FF4407000F0B5F8FFF7C4
:10138000C9FFFFF781FE00F047FE00200121034660
:101390008022CDE9001009A10C4801F0C9FC002011
:1013A000012103468022CDE9001009A10B4801F07C
:1013B000BFFC01F0C7FA00BFFEE70000646566618C
:1013C000756C745F7461736B00000000F90A0008AB
:1013D00072733233325F746573740000C520000885
:1013E0002DE9F04F03460E4617463D48006800F4CD
:1013F000E060B0F5A06F0FD006DCB0F5407F0DD0F7
:10140000B0F5806F0BD108E0B0F5C06F03D0B0F538
:10141000E06F04D100BF00BF00BF00BF04E04FF485
:10142000A06000F061F800BF00BF00BF2C4800685A
:10143000C0F30220044620463246BC460146C1F1B4
:10144000070ABAF1040F02D94FF0040A01E0C1F112
:10145000070AD14601F1040ABAF1070F02D24FF090
:10146000000A01E0A1F1030AD0464FF0010A0AFA8E
:1014700009FAAAF1010A0AEA020A0AFA08FA4FF07E
:10148000010B0BFA08FBABF1010B0BEA0C0B4AEA60
:101490000B0500BF1946284600290BDA02074FEA60
:1014A00012680F4A0C3201F00F0CACF1040C02F878
:1014B0000C8005E002074FEA126C0A4A02F801C0EC
:1014C00000BF00BF03F01F010120884059098900B7
:1014D00001F1E021C1F8000100BFBDE8F08F00007C
:1014E0000CED00E000E400E002490143024A116013
:1014F000704700000000FA050CED00E0034A0A40C6
:101500000243034B1A60BFF34F8F704780FFFF1FEA
:1015100008ED00E02DE9F04105460E462648076833
:1015200026480068001D01F0C6F850B9234800683D
:1015300090F82C10012088402149096881432048F7
:101540000160681CD8B9D6B11E4948681B490968B2
:1015500088601A4982680968CA6018490968091DC3
:101560008268516015490968091D8160154A13494F
:1015700009684A6111460968491C11601AE07C1922
:101580000E4800684460BC4207D20C480168091D3F
:101590000D48006801F0B3F80CE008480168091D27
:1015A0000A48006801F0ABF809480068844201D29B
:1015B00007480460BDE8F0813400002020000020CE
:1015C0003800002098060020280000202400002079
:1015D0005000002010B5044601F0ACF82F48006818
:1015E000401C2E4908602E48006840B92C48046011
:1015F0000846006801280DD100F088F90AE0294862
:10160000006838B926480068C06AE16A884201D893
:101610002348046024480068401C2349086094F86B
:101620002C10012088402149096808431F4908609F
:10163000E16A01EB81011E4A02EB81014868A0606A
:101640008268E260211D826851608160E16A01EB7D
:101650008101174A02EB81026261E16A01EB8101BB
:10166000134A52F82110491CE26A02EB8202104B25
:1016700043F8221001F070F80A48006868B1084881
:101680000068C06AE16A884207D24FF08050094979
:101690000860BFF34F8FBFF36F8F10BD3000002085
:1016A000200000203C0000204C00002038000020DA
:1016B000BC05002004ED00E010B501F03BF8104837
:1016C0000068D0B90F4801F00AF80F4801F007F898
:1016D0000C480E4908600C480D49086000220C2196
:1016E0000A2001F0FDF9064908600846006820B1AB
:1016F00008A10348006801F079F801F02DF810BD49
:1017000068000020EC060020000700206000002098
:1017100064000020546D72510000000010B516E006
:1017200001F008F80C48C068C468201D00F0C3FF31
:101730000A480068401E0949086009480068401EC0
:101740000749086001F008F8204600F020F8044836
:1017500000680028E4D110BD84060020300000207D
:101760002C00002070B504460D46206C70B1216C31
:10177000E0680144E160D4E90210884201D32168A5
:10178000E1602846226CE168FEF77AFD70BD10B575
:101790000446206B00F0F0FF204600F0EDFF10BD86
:1017A0000146084A126812680AB9012200E00022C4
:1017B0000A600A6822B9034A1268D268106800E019
:1017C000002070476000002030B54FF4803315488A
:1017D00000F007042CB1C01D20F00700114C041BC1
:1017E0001B1B0246104C226000240F4D6C60D01869
:1017F000083820F007000D4C206000240B4D2D68A8
:101800006C600A4D2D682C601146441A4C60074CE0
:1018100024680C60064D4C682C60064D4C682C60AA
:1018200030BD000014070020800000208800002048
:10183000900000208C00002000BFFFF76FFF0648DB
:1018400000680128F9D94FF0805004490860BFF3BF
:101850004F8FBFF36F8FF0E7BC05002004ED00E071
:101860002DE9F04106460D4617469846069C0DB9EF
:10187000246000E02760E66325640121204601F032
:1018800055F9BDE8F0812DE9F05F81460E4690469E
:101890009A460A9F0C9C4FEA8801A522206BFEF70E
:1018A00001FDA8F10100216B01EB800B2BF0070B70
:1018B0007EB1002507E0715D04F134004155705D93
:1018C00000B902E06D1C102DF5D300BF00214320AC
:1018D0000155072F00D30627E7626764201D00F03B
:1018E0000BFF04F1180000F007FF2461C7F10700A7
:1018F000A061646252464946584600F0AFFA206043
:101900000B9808B10B980460BDE8F09F10B5002457
:1019100007E004EB84010F4A02EB810000F0DFFED8
:10192000641C072CF5D30C4800F0D9FE0B4800F0DE
:10193000D6FE0B4800F0D3FE0A4800F0D0FE0A485D
:1019400000F0CDFE044809490860044808490860D1
:1019500010BD0000BC050020480600205C060020E9
:101960007006002084060020980600202400002035
:101970002800002010B50146164800E00068036802
:101980008B42FBD30246436813448B4204D1436825
:101990004C682344436001460A464B68134404687C
:1019A000A34211D10C4C03682468A34208D04B68B1
:1019B0000468646823444B6003681B680B6005E09F
:1019C000054B1B680B6001E003680B60884200D088
:1019D000016010BD80000020880000202DE9F0414A
:1019E00004460D4616461F464FF000086560246108
:1019F000B5420CD8F01BA169884202D34FF0010810
:101A000011E0211D0948006800F079FE0BE0BE429C
:101A100004D2BD4202D34FF0010804E0211D044866
:101A2000006800F06CFE4046BDE8F08164000020D4
:101A30006000002070B5054600F07CFEA86B08B978
:101A4000012400E0002400F087FE204670BD000065
:101A500070B505460E460E480068C068C468201D73
:101A600000F029FE94F8240000F0040028B132466A
:101A70002946204600F0C4F805E094F8240000F060
:101A8000FE0084F824002046216A884770BD0000CB
:101A9000600000207FB56EE0019800286BDB039C9E
:101AA000606908B9012000E0002010B9201D00F095
:101AB00002FE684600F0D0F8054601980A2858D280
:101AC000DFE800F05705072E364706082F3700BF1E
:101AD00000BF00BF94F8240040F0010084F8240007
:101AE0000298A269811803462A462046FFF776FF2E
:101AF000A8B194F8240000F0040038B10298A2695B
:101B000081182A46204600F07BF805E094F824006E
:101B100000F0FE0084F824002046216A884729E06E
:101B200000BF94F8240000F0FE0084F8240021E0B7
:101B300000BF94F8240040F0010084F824000298CB
:101B4000A061A06941192B462A462046FFF746FFAF
:101B500010E094F8240000F0020018B9204600F0CC
:101B60000BFE05E094F8240000F0FE0084F8240049
:101B700000E000BF00BF002201A90348006801F097
:101B800025F8002888D17FBD68000020F8B50546FB
:101B90000C4600F013FF684600F05EF80646009819
:101BA00020BB44B9B54206D801F048FA3146284670
:101BB000FFF74EFF1CE03CB10E480068006808B912
:101BC000012000E000200446A91B22460A480068C4
:101BD00000F030FE01F032FA50B94FF08050074962
:101BE0000860BFF34F8FBFF36F8F01E001F026FA5B
:101BF000F8BD0000640000206800002004ED00E053
:101C000070B504460D46164604E0A069054420461A
:101C1000216A8847A06941192B4632462046FFF7C2
:101C2000DDFE0028F1D170BD09480068006808B9E0
:101C3000012000E0002020B14FF0FF30054908608E
:101C400005E003480068C068006802490860704702
:101C5000240000205000002070B5044601F09CF8DC
:101C6000054607480068854204D200F00BF80120C1
:101C7000206001E00020206001480560284670BD1A
:101C80007000002070B508E00D480068C068046866
:101C90004FF0FF312046FFF7DBFE0948006800687F
:101CA00008B9012000E000200028EDD004480568B4
:101CB00004480068024908600248056070BD0000E1
:101CC000600000206400002000BF502080F31188D5
:101CD000BFF34F8FBFF36F8F00BF00BFFEE708B5A4
:101CE00000BF6846FFF75CFD044620460099FFF7F9
:101CF0004DFFFFF7CFFEF4E770B5044600F01AFD84
:101D000094F9455010E0606A08B9012000E0002015
:101D100038B904F1240001F00DF918B100F0D6FD36
:101D200000E003E0681E45B2002DECDC00BFFF20A0
:101D300084F8450000F010FD00F0FCFC94F94450DC
:101D400010E0206908B9012000E0002048B904F142
:101D5000100001F0EFF808B100F0B8FD681E45B2C0
:101D600000E001E0002DECDC00BFFF2084F844001F
:101D700000F0F2FC70BD00002DE9F04705464FF081
:101D8000000900F01BFE3048006808B9FFF71CFD91
:101D900075B105F00700C0F11008C8F1FF30A84286
:101DA00001D2012000E0002008B9454400E00025F0
:101DB000012000EBE570002841D0002D3FD02348E2
:101DC000006885423BD8224E3046046801E0264632
:101DD00024686068A84202D220680028F7D11A4817
:101DE000006884422BD0306800F108092068306018
:101DF0006068401B102807D967196068401B78602D
:101E000065603846FFF7B6FD104960680968081A32
:101E10000E490860084600680E490968884203D2E6
:101E20000A4800680B490860606840F00040606044
:101E30000020206008480068401C0749086001F045
:101E4000FDF84846BDE8F087880000208C0000209F
:101E5000800000209000002094000020001F4FF020
:101E600080730360001F21F001030360001F054B16
:101E7000036014380260001F6FF002030360203813
:101E800070470000C91C00082DE9F04F8CB00646D1
:101E900000200A903EA090E8004CC068CDE905BE45
:101EA000CDF810A007900FF2EC0ADAE9000ACDE9AC
:101EB000020A0FF2E00ADAE9000ACDE9000A38481E
:101EC0000068C0F381000B900B9820B1012804D06A
:101ED000022828D103E0334927E0334925E0304880
:101EE000001F006800F03F072D48001F0068C0F386
:101EF000881C2B48001F0068C0F30140401C4FEABB
:101F000040092748001F006800F48008B8F5800FDA
:101F100001D1254B00E0234BB3FBF7F000FB0CF0A5
:101F2000B0FBF9F101E01F4900BF00BF1C48006889
:101F3000C0F3031404A8055D21FA05F218480068EF
:101F4000C0F3822402A8055D22FA05F00990144826
:101F50000068C0F342341DF8045022FA05F00890DE
:101F600036B1012E06D0022E06D0032E0AD106E08D
:101F70000A9108E00A9206E009980A9003E008989E
:101F80000A9000E000BF00BF0A980CB0BDE8F08FD7
:101F90000000000000000000010203040607080919
:101FA000083802400024F40040787D01074A02EB23
:101FB0009011D1F8001800F01F0301229A4011433C
:101FC000024B03EB9012C2F8001870470030024039
:101FD000074A02EB9011D1F8001800F01F0301220C
:101FE0009A409143024B03EB9012C2F800187047DD
:101FF00000300240074A02EB9011D1F8001800F0BF
:102000001F0301229A401143024B03EB9012C2F8C6
:10201000001870470030024010B540F60240FFF74C
:10202000C5FF41F20510FFF7C1FF40F61640FFF76C
:10203000BDFF4023002202212048FFF722F9402261
:1020400008211E48FFF7EAF88023012202211B48DD
:10205000FFF717F9802208211848FFF7DFF8184822
:1020600000F00CFA4FF4E131154800F08FF900212F
:10207000134800F0F8FA0021114800F014FB002189
:102080000F4800F000FB08210D4800F004FB04217C
:102090000B4800F0F0FAFEF7FFFD4021084800F081
:1020A0005BFA8021064800F061FA002205214720F2
:1020B000FFF796F9024800F063FA10BD00080240ED
:1020C0000014014000BF00240DE00A48015D0A48E9
:1020D00000F0D0F900BF0721074800F070FA00288F
:1020E000F9D0601C84B2112CEFD34FF47A7000F059
:1020F000C7FBE8E7D83100080014014008B500200C
:1021000000213F4A126842F480323D4B1A6000BF02
:10211000401C3B4A126802F4003119B94FF6FF72B5
:102120009042F5D1364A126802F4003232B900BF4B
:10213000334A126802F40032002AF9D0304A4032A1
:10214000126842F080522E4B40331A602D4A1268BA
:1021500042F440422B4B1A60294A08321268284B3D
:1021600008331A601A46126842F400421A601A468E
:10217000126842F4A0521A60234A1B1F1A601A1FE9
:10218000126842F080721B1F1A6000BF1C4A12685E
:1021900002F00072002AF9D01A4A126842F4803222
:1021A000184B1A6000BF174A526802F48032002AA6
:1021B000F9D0144A126842F40032124B1A6000BF80
:1021C000104A526802F40032002AF9D00C4A083250
:1021D00012680092009A22F003020092009A42F0E4
:1021E00002020092064B0833009A1A6000BF044AAC
:1021F0000832126802F00802002AF8D008BD000078
:1022000000380240007000401954400710B5FFF735
:1022100075FF10BD70B500BFEFF31080054672B6B4
:102220002448007810B105B962B670BD2248008814
:1022300022490988884206DC204800881E4909880E
:10224000401A84B204E01C480088C0F5807084B253
:1022500014B905B962B6E8E71948048001201549A8
:10226000087007211748FEF78BFC174812490988A8
:102270004318002207211348FEF7D4FD2246072108
:102280001048FEF79CFE202207210E48FEF7ABFD0A
:1022900006210E4800F079F907210A48FEF780FC74
:1022A00040F20631094800F0A7F905B962B600BF4F
:1022B000BBE700000E0000200A00002008000020FC
:1022C0000C00002000640240BC020020001001400D
:1022D00070B500BFEFF31080054672B62448007851
:1022E00010B105B962B670BD22480088224909883C
:1022F000884206DC204800881E490988401A84B2BA
:1023000004E01C480088C0F5807084B214B905B997
:1023100062B6E8E7194804800120154908700621D3
:102320001748FEF72DFC1748124909884318002268
:1023300006211348FEF776FD224606211048FEF7D7
:102340003EFE202206210E48FEF74DFD06210E48D6
:1023500000F01BF906210A48FEF722FC40F2063184
:10236000094800F049F905B962B600BFBBE70000B3
:102370001A00002016000020140000201800002081
:1023800000640240BC040020001401402DE9F04725
:1023900004460D460027B846B94600263349601A60
:1023A0008C4235D00CDC32482044E8B1B0F5806F67
:1023B0001FD0B0F5006F21D0B0F5406F32D122E0D0
:1023C000B0F5806F29D0B0F5184F03D0B0F51C4F91
:1023D00028D104E00320FFF757FD074623E0032040
:1023E000FFF752FD07461EE00220FFF74DFD0746AE
:1023F00019E00220FFF748FD074614E00220FFF72E
:1024000043FD07460FE00220FFF73EFD07460AE0C6
:102410000220FFF739FD074605E00220FFF734FDF3
:10242000074600E000BF00BFE06800F4004070B164
:10243000780000EB5500B0FBF5F64FF6F07006EAB9
:102440000008C6F3420948EA0900A0600CE007EB67
:102450005500B0FBF5F64FF6F07006EA000806F0FE
:102460000F0948EA0900A060BDE8F0870078004045
:1024700000BCFFBFC1F308024260704710B50446BC
:102480003349601A8C424DD00CDC32482044E0B114
:10249000B0F5806F22D0B0F5006F31D0B0F5406F4D
:1024A00052D136E0B0F5806F45D0B0F5184F03D06B
:1024B000B0F51C4F48D11AE040F60410FFF79AFD22
:1024C00040F60410FFF784FD3FE040F61100FFF7EF
:1024D00091FD40F61100FFF77BFD36E040F612005B
:1024E000FFF788FD40F61200FFF772FD2DE040F681
:1024F0000510FFF77FFD40F60510FFF769FD24E0AA
:1025000040F61300FFF776FD40F61300FFF760FD7D
:102510001BE040F61400FFF76DFD40F61400FFF7D6
:1025200057FD12E040F61E00FFF764FD40F61E0066
:10253000FFF74EFD09E040F61F00FFF75BFD40F698
:102540001F00FFF745FD00E000BF00BF10BD000009
:102550000078004000BCFFBF426922F040024261A7
:10256000426901F040031A4342617047426922F018
:1025700080024261426901F080031A434261704760
:10258000C16841F40051C160704710B543F20802C0
:1025900091420BD100EB9112126801F01F0401234C
:1025A000A3409A4300EB91131A6007E001F01F0368
:1025B00001229A40D24300EB91131A6010BD30B54E
:1025C0000246002002EB91131B6801F01F05012455
:1025D000AC4023400BB1012000E0002030BD10B51D
:1025E00000EB9112126801F01F040123A3409A43EB
:1025F00000EB91131A6010BD10B500EB9112126838
:1026000001F01F040123A3401A4300EB91131A6049
:1026100010BD10B500EB91521268C1F304440123C0
:10262000A3409A4300EB91531A6010BDF0B50246E7
:10263000002000230024C1F38915555901F01F071C
:102640000126BE4005EA060302EB91552D68C1F351
:1026500004470126BE4005EA060414B10BB101206F
:1026600000E00020F0BDC26822F4C062C260C2680F
:102670000A43C26070470A460021C16821F0040184
:102680001143C1607047026922F44052026102693D
:102690000A43026170470A460021C16821F008011F
:1026A0001143C1607047C26822F48052C260C268A0
:1026B0000A43C260704701460A69D1E90130986057
:1026C000D1E9010358605068884201D188685060A0
:1026D000002008611068401E10601068704700F10B
:1026E000080141604FF0FF31816000F10801C160D5
:1026F000016100210160704700210161704710B540
:1027000002460B685C1C0CB9106907E002F1080076
:1027100000E04068446824689C42FAD944684C60F0
:102720004C68A160886041600A611468641C146090
:1027300010BD000000BF502080F31188BFF34F8F01
:10274000BFF36F8F00BF03480068401C0149086059
:10275000704700007400002006480068401E0549CC
:1027600008600846006820B9002080F3118800BF87
:1027700000BF70477400002070B506463546E6B1CC
:10278000083D2C466068C00FB8B12068A8B96068E1
:1027900020F00040606000F011F9084960680968A5
:1027A0000844064908602046FFF7E4F8044800683A
:1027B000401C0349086000F041FC70BD8C00002003
:1027C0009800002000204FF0E02108618861064851
:1027D00000684FF47A71B0FBF1F0401E4FF0E02139
:1027E00048610720086170471C00002010B50246B0
:1027F0000B460021BBB1002012E00D4C04EBC004DD
:102800006468944203D10A4C04EBC0010AE031B978
:10281000074C54F8304014B9054C04EBC001401C7F
:102820000828EAD300BF09B10B604A6010BD000060
:10283000AC0600202DE9F04105460E4617462C4611
:10284000FFF778FF94F94400401C10B9002084F889
:10285000440094F94500401C10B9002084F845005C
:10286000FFF77AFFA06B28B93A46314604F12400FD
:1028700000F042F82046FFF73FFABDE8F081000083
:1028800070B50446002544B100F098F800212046B8
:10289000FEF740FE00F0D2FB05463DB94FF08050F8
:1028A00003490860BFF34F8FBFF36F8F70BD000007
:1028B00004ED00E0034909680160034909684160CB
:1028C000704700004800002034000020012001492A
:1028D000086070474400002070B505460C46054866
:1028E000016818312846FFF70AFF01212046FEF74C
:1028F00011FE70BD2000002070B504460E4615463E
:1029000060680F490968C8610D49826809680A62F0
:102910000B49096818318268516009490968183102
:102920008160074909688C622168491C21600DB1EA
:102930004FF0FF3629463046FEF7ECFD70BD000033
:10294000200000201CB5154800210B468022CDE94F
:10295000001013A1144800F0EBF90446012C02D139
:1029600000F01AFC0446012C14D100BF502080F363
:102970001188BFF34F8FBFF36F8F00BF4FF0FF3051
:102980000A49086001200A490860002009490860D6
:1029900000F04CF8084800681CBD000054000020FE
:1029A00049444C4500000000391800085000002040
:1029B0003C0000203400002058000020024800683D
:1029C000401C0149086070475C0000201248006804
:1029D00018B10120114908601DE000200F4908606E
:1029E0000F480068B0FA80F0C0F11F0101EB8102CE
:1029F0000C4B03EB820042685268426000F108020F
:102A00004368934202D14268526842604268D26889
:102A1000054B1A6000BF70475C0000204400002096
:102A200038000020BC050020200000201CB52648EE
:102A3000014609780191FF2102461170014609788B
:102A400000919DF8001001F05001204A11700721FB
:102A50001F4A116009E01E490968491E1C4A11609D
:102A60009DF800104906090E00919DF8001001F034
:102A700080018029EFD0164909680902144A1160C3
:102A80001146098801F4E06111600F4A0199117043
:102A90001048006840F470000E490860084600685D
:102AA00040F070400860FFF78DFE00200A49086082
:102AB000FDF798FB0948006840F04040074908606E
:102AC000FDF77CFB00201CBD00E400E07800002046
:102AD0007C00002020ED00E07400002034EF00E0D6
:102AE0002DE9F84304460E4617460025DCB1681E62
:102AF000B0FBF4F0B04216D304FB06F010F1490F1E
:102B000011D804FB06F909F14800FFF735F905462D
:102B10004DB1A84608F148083B464246314620469A
:102B20000095FEF79DFE2846BDE8F8832DE9F041AB
:102B300005460E4601272C46002C41D0E06B0028AC
:102B40003ED0B91EE06BB1FBF0F0216C884237D368
:102B5000FFF7F0FDD4E90F12206801FB0200A0602E
:102B60000020A06320686060E06B401E226C21683A
:102B700000FB0211E160FF2084F8440084F8450066
:102B80009EB9206908B9012000E00020A8B904F12D
:102B9000100000F0CFF980B14FF080500A49086072
:102BA000BFF34F8FBFF36F8F07E004F11000FFF703
:102BB00096FD04F12400FFF792FDFFF7CDFD00E044
:102BC00000273846BDE8F08104ED00E02DE9F7412B
:102BD00083B005460F464FF000082C4600BFFFF7B4
:102BE000A9FDA66BF6B139462046FEF7BBFD701E67
:102BF000A063206908B9012000E0002060B904F159
:102C0000100000F097F938B14FF080502F4908605C
:102C1000BFF34F8FBFF36F8FFFF79EFD012006B00C
:102C2000BDE8F081059818B9FFF796FD0020F6E79A
:102C3000B8F1000F04D101A8FFF73CFE4FF00108E6
:102C4000FFF78AFDFFF7BAFEFFF774FD94F9440021
:102C5000401C10B9002084F8440094F94500401C41
:102C600010B9002084F84500FFF776FD05A901A8FA
:102C700000F02EF8F0B92046FEF7DCFEA0B104F11A
:102C800024000599FFF728FE2046FFF735F800F0ED
:102C9000D5F90028A3D14FF080500C490860BFF34C
:102CA0004F8FBFF36F8F9AE72046FFF725F800F0AC
:102CB000C5F994E72046FFF71FF800F0BFF920465A
:102CC000FEF7B8FE00288AD00020A8E704ED00E057
:102CD00070B506460C46FFF72DFD13480268706874
:102CE000131A2068401C08B9002519E00F49306804
:102CF0000968884206D07068904203D801250020F8
:102D000020600DE02068984207D92068C01A206032
:102D10003046FFF7CFFD002502E0002020600125AE
:102D2000FFF71AFD284670BD34000020480000203F
:102D30002DE9FF4F85B0804689461746DDE912AB85
:102D4000B800FFF719F8064676B15420FFF714F8DB
:102D500004462CB154212046FDF7ABFA266304E06B
:102D60003046FFF709FD00E000247CB10020CDE9EA
:102D700000ABCDE902403A4649464046089BFEF783
:102D800082FD2046FEF726FC012501E04FF0FF35CD
:102D9000284609B0BDE8F08F014908687047000077
:102DA000340000202DE9F041002757480068002832
:102DB0007ED156480068451C544805608DB954487A
:102DC000D0F8008053480068514908605148C0F865
:102DD000008051480068401C4F490860FEF724FFFE
:102DE00000BF4E480068854276D300BF484800685F
:102DF000006808B9012000E0002020B14FF0FF304A
:102E00004649086067E042480068C068C468666870
:102E1000B54202D2414806605DE06069D4E9021221
:102E20008A60D4E902214A60211D42688A4201D1A8
:102E3000E1684160002262610168491E0160A06A88
:102E400098B1A06AD4E907128A60D4E907214A60E0
:102E500004F1180142688A4201D1216A41600022CE
:102E6000A2620168491E016000BF94F82C10012085
:102E700088402B490968084329490860E16A01EB49
:102E80008101284A02EB81014868A0608268E26003
:102E9000211D826851608160E16A01EB8101214A54
:102EA00002EB81026261E16A01EB81011D4A00E0EF
:102EB00022E052F82110491CE26A02EB8202194B0F
:102EC00043F822101849E06A0968C96A88428DD916
:102ED00001278BE700E000BF13480068C06A00EBE1
:102EE0008000104951F82000012800D901270F481F
:102EF000006800B1012704E00D480068401C0C493F
:102F000008603846BDE8F0815C00002034000020F5
:102F1000240000202800002048000020500000204D
:102F200038000020BC0500202000002044000020C4
:102F30004000002070B50346D868C168886AD1E9AE
:102F40000745A560D1E90754656001F1180445689B
:102F5000A54201D10C6A446000258D620468641E9C
:102F600004603048006800283DD14869D1E9024535
:102F7000A560D1E9025465600C1D4568A54201D1E8
:102F8000CC68446000254D610468641E046091F8BB
:102F90002C400120A040244C24682043224C206077
:102FA000CC6A04EB8404214D05EB840460688860DE
:102FB0008568CD600C1D85686C608460CC6A04EB0C
:102FC00084041A4D05EB84054D61CC6A04EB84043E
:102FD000164D55F82440641CCD6A05EB8505134E4B
:102FE00046F8254010E0124C6068C86185680D62A3
:102FF00001F1180485686C6084600D4D8D622C466B
:103000002468641C2C6000BF0A4CC86A2468E46A07
:10301000A04204D901220120074C206000E00022D8
:10302000104670BD5C00002038000020BC05002068
:1030300070060020200000204400002070B500240D
:103040000026FFF777FB4B480068401E494908609F
:103050000846006800287DD147480068002879D0DC
:103060005BE04648C068C468A06AD4E907128A6079
:10307000D4E907214A6004F1180142688A4201D16B
:10308000216A41600022A2620168491E01606069F4
:10309000D4E902128A60D4E902214A60211D426803
:1030A0008A4201D1E1684160002262610168491EE3
:1030B000016094F82C1001208840314909680843C8
:1030C0002F490860E16A01EB81012E4A02EB810180
:1030D0004868A0608268E260211D8268516081605A
:1030E000E16A01EB8101274A02EB81026261E16A38
:1030F00001EB8101234A52F82110491CE26A02EBDC
:103100008202204B43F822101F49E06A0968C96A0D
:10311000884202D301201D4908601848006808B998
:10312000012000E0002000289BD00CB1FEF77CFDC0
:103130001748056865B100BFFFF734FE10B10120E4
:10314000124908606D1E002DF6D10020104908605C
:103150000E4800E009E0006838B1012630070D494B
:103160000860BFF34F8FBFF36F8FFFF7F5FA30465C
:1031700070BD00005C0000203000002070060020C0
:1031800038000020BC050020200000204400002062
:103190004000002004ED00E01CB50024FEF78CFA8E
:1031A0000848006858B10848062100234FF480728F
:1031B000CDE9001005A10748FFF7BAFD04462046F7
:1031C0001CBD0000680000206C000020546D7220BF
:1031D00053766300DF1C0008706F6C6C696E6720AB
:1031E000747820746573740D0A0000000C320008B6
:1031F000000000209C00000044060008A8320008DF
:103200009C0000207C0A0100540600080000000019
:1032100000000000000000000000000000000000AE
:103220000000000000000000007A030A0000000017
:10323000000000000000000000000000000000008E
:10324000000000000000000000000000000000007E
:10325000000000000000000000000000000000006E
:103260000000000006000000000000000000000058
:10327000000000000000000000000000000000004E
:10328000AAAAAAAA00000000000000000000000096
:10329000000000000000000000000000000000002E
:0832A000000000000000000026
:040000050800018965
:00000001FF
