:020000040800F2
:10000000D80501205D020008FD020008F502000885
:10001000F9020008ED020008BD040008000000001D
:100020000000000000000000000000009D0100082A
:10003000F102000800000000F901000801030008B7
:1000400077020008770200087702000877020008AC
:10005000770200087702000877020008770200089C
:10006000770200087702000877020008770200088C
:10007000770200087702000877020008770200087C
:10008000770200087702000877020008770200086C
:10009000770200087702000877020008770200085C
:1000A000770200087702000877020008770200084C
:1000B000770200087702000877020008770200083C
:1000C000770200087702000877020008770200082C
:1000D000770200087702000877020008770200081C
:1000E000770200087702000877020008770200080C
:1000F00077020008770200087702000877020008FC
:1001000077020008770200087702000877020008EB
:1001100077020008770200087702000877020008DB
:1001200077020008770200087702000877020008CB
:1001300077020008770200087702000877020008BB
:1001400077020008770200087702000877020008AB
:10015000770200087702000877020008770200089B
:10016000770200087702000877020008770200088B
:1001700077020008770200087702000800000000FC
:100180007702000877020008DFF80CD000F09CF836
:100190000048004745060008D80501202C4B196887
:1001A0000868B0E8F04F80F30988BFF36F8F4FF015
:1001B000000080F3118870470000000008480068C4
:1001C000006880F308884FF0000080F3148862B65E
:1001D00061B6BFF34F8FBFF36F8F00DF00BF00BF6B
:1001E00008ED00E0DFF80C00016841F470010160E7
:1001F000704700BF88ED00E0EFF30980BFF36F8F19
:10020000134B1A681EF0100F08BF20ED108A20E96A
:10021000F04F106009B44FF0500080F31188BFF325
:100220004F8FBFF36F8F01F0DDFA4FF0000080F3C6
:10023000118809BC19680868B0E8F04F1EF0100F6B
:1002400008BFB0EC108A80F30988BFF36F8F704746
:1002500004000020EFF30580704700000648804747
:1002600006480047FEE7FEE7FEE7FEE7FEE7FEE79B
:10027000FEE7FEE7FEE7FEE7350300088901000818
:1002800040EA01039B0703D009E008C9121F08C018
:10029000042AFAD203E011F8013B00F8013B521E98
:1002A000F9D27047D2B201E000F8012B491EFBD20F
:1002B00070470022F6E710B513460A460446194671
:1002C000FFF7F0FF204610BD064C074D06E0E06842
:1002D00040F0010394E8070098471034AC42F6D38D
:1002E000FFF756FF6C2300088C23000800BFFEE7D1
:1002F00000BFFEE700BFFEE700BFFEE700BFFEE76E
:1003000010B500BF502080F31188BFF34F8FBFF3AB
:100310006F8F00BF01F09AFD18B14FF08050044973
:10032000086000BF002080F3118800BF10BD0000EE
:1003300004ED00E01CB55D48006840F470005B49C6
:1003400008605B48006840F001005949086000BF40
:100350005748006800F002000028F9D054480830DF
:10036000006800F00C0008286ED100BF002001904A
:1003700002E00198401C019001985028F9D34C48A4
:10038000083000680090009820F0F000009000987D
:1003900040F0800000904649083100980860002035
:1003A000019002E00198401C019001985028F9D377
:1003B0003F48083000680090009820F0F00000905E
:1003C000009840F09000009039490831009808608A
:1003D0000020019002E00198401C019001985028F3
:1003E000F9D33348083000680090009820F0F000FE
:1003F0000090009840F0A00000902D49083100982E
:1004000008600020019002E00198401C01900198D2
:100410005028F9D32648083000680090009820F052
:10042000F0000090009840F0B000009020490831A2
:10043000009808600020019002E00198401C0190A3
:1004400001985028F9D300BF19480830006820F0FF
:100450000300174908310860C82000F040F814482C
:10046000006814490840124908600846006820F4F2
:100470008020086000200E490831086000BF0C4849
:100480000830006800200028F9D10B480849091DF0
:100490000860002006490C31086000F0FDFE0021D4
:1004A0004FF0006000F0EEF81CBD000088ED00E0A9
:1004B00000380240FFFFF6FE1030002400BFFEE7C8
:1004C00002E008C8121F08C1002AFAD1704770471D
:1004D000002001E001C1121F002AFBD1704708B5BE
:1004E0000021009102E00099491C009100EB80017D
:1004F000009AB2EB410FF6D308BD81627047F0B5A8
:1005000004460D4616462168E268002019E00127DE
:1005100087401F409FB14FEA400C032707FA0CF7B2
:10052000B943470005FA07F739434FEA400C032760
:1005300007FA0CF7BA43470006FA07F73A43471C95
:10054000B8B21028E3D32160E260F0BDF0B50C46EC
:100550001546012C03D146681E43466002E04668FA
:100560009E434660826800210DE001268E401E40B9
:100570003EB14F000326BE40B2434E0005FA06F6D8
:1005800032434E1CB1B21029EFD38260F0BD00009F
:100590000021002005E0054A52F820201143421CAA
:1005A000D0B20428F7DB024A916170475C2300084F
:1005B0000010024070B50024002505E00D4850F8F9
:1005C00025000443681CC5B2042DF7DB40F6044047
:1005D00000F0C8FD2346002201210748FFF78FFFE6
:1005E0002346022200210448FFF7B0FF024884613D
:1005F00070BD00005C2300080010024010B50446E6
:10060000042C00DB10BD044850F824100348FFF709
:1006100074FF00BFF6E700005C23000800100240F2
:100620000024FFF7B5FF00BFFFF7B2FF2046FFF73A
:10063000E5FFC82000F0C2FF601CC4B2042CF3DB4D
:100640000024F1E71CB5FFF7B5FF002002210346A7
:100650008022CDE9001007A1094801F0ADFB012877
:1006600000D002E001F05CF800BFFFF791FF00BF8F
:10067000FEE700006C65645F746573740000000041
:1006800021060008034A0A400243034B1A60BFF3E5
:100690004F8F704780FFFF1F08ED00E02DE9F0410C
:1006A00005460E462648076826480068001D00F0EB
:1006B000F7FD50B92348006890F82C1001208840BD
:1006C00021490968814320480160681CD8B9D6B126
:1006D0001E4948681B49096888601A498268096888
:1006E000CA6018490968091D82685160154909687E
:1006F000091D8160154A134909684A611146096854
:10070000491C11601AE07C190E4800684460BC4224
:1007100007D20C480168091D0D48006800F0F0FD83
:100720000CE008480168091D0A48006800F0E8FD6F
:1007300009480068844201D207480460BDE8F0819E
:1007400018000020040000201C0000205C01002094
:100750000C000020080000203400002010B50446E2
:1007600000F0E8FD2F480068401C2E4908602E4824
:10077000006840B92C4804600846006801280DD183
:1007800000F0B2F90AE02948006838B92648006844
:10079000C06AE16A884201D823480460244800689E
:1007A000401C2349086094F82C10012088402149FE
:1007B000096808431F490860E16A01EB81011E4A8C
:1007C00002EB81014868A0608268E260211D8268B6
:1007D00051608160E16A01EB8101174A02EB8102FD
:1007E0006261E16A01EB8101134A52F82110491C50
:1007F000E26A02EB8202104B43F8221000F0DCFDAB
:100800000A48006868B108480068C06AE16A88421E
:1008100007D24FF0805009490860BFF34F8FBFF3F4
:100820006F8F10BD14000020040000202000002065
:10083000300000201C0000208000002004ED00E0BB
:1008400010B500F077FD10480068D0B90F4800F0EF
:1008500047FD0F4800F044FD0C480E4908600C4865
:100860000D49086000220C210A2001F0EFF806492A
:1008700008600846006820B108A10348006800F03D
:1008800039FE00F099FD10BD4C000020B0010020A1
:10089000C40100204400002048000020546D725123
:1008A0000000000010B516E000F044FD0C48C068E0
:1008B000C468201D00F0F4FC0A480068401E094985
:1008C000086009480068401E0749086000F074FD90
:1008D000204600F020F8044800680028E4D110BD4C
:1008E00048010020140000201000002070B50446CC
:1008F0000D46206C70B1216CE0680144E160D4E9E0
:100900000210884201D32168E1602846226CE16828
:10091000FFF7B6FC70BD10B50446206B00F082FDF9
:10092000204600F07FFD10BD0146084A126812689B
:100930000AB9012200E000220A600A6822B9034ACB
:100940001268D268106800E0002070474400002060
:1009500030B54FF48033154800F007042CB1C01DAA
:1009600020F00700114C041B1B1B0246104C226098
:1009700000240F4D6C60D018083820F007000D4C93
:10098000206000240B4D2D686C600A4D2D682C6092
:100990001146441A4C60074C24680C60064D4C68A4
:1009A0002C60064D4C682C6030BD0000D801002042
:1009B000640000206C000020740000207000002003
:1009C00000BFFFF76FFF064800680128F9D94FF014
:1009D000805004490860BFF34F8FBFF36F8FF0E77B
:1009E0008000002004ED00E02DE9F04106460D46B0
:1009F00017469846069C0DB9246000E02760E66320
:100A000025640121204601F061F8BDE8F081000075
:100A10002DE9F05F82460F4690469B460A9E0C9C4D
:100A20004FEA8801A522206BFFF73CFCA8F10100EA
:100A3000216B01EB800929F0070909F0070008B9CB
:100A4000012000E0002020B940F25D311DA000F03F
:100A500043FC7FB1002507E0795D04F13400415586
:100A6000785D00B902E06D1C102DF5D300BF0021A8
:100A700043200155072E01D2012000E0002020B9BB
:100A800040F292310FA000F027FC072E00D306267B
:100A9000E6626664201D00F030FC04F1180000F0EE
:100AA0002CFC2461C6F10700A06164625A465146DD
:100AB000484600F041FB20600B9808B10B98046099
:100AC000BDE8F09F2E2E5C4D6964646C65776172A1
:100AD00065735C4672656552544F535C7372635C18
:100AE0007461736B732E630010B5002407E004EB90
:100AF00084010F4A02EB810000F0F2FB641C072C1A
:100B0000F5D30C4800F0ECFB0B4800F0E9FB0B4878
:100B100000F0E6FB0A4800F0E3FB0A4800F0E0FBC7
:100B200004480949086004480849086010BD0000ED
:100B3000800000200C010020200100203401002052
:100B4000480100205C010020080000200C0000206B
:100B500010B50146164800E0006803688B42FBD3DD
:100B60000246436813448B4204D143684C682344D3
:100B7000436001460A464B6813440468A34211D1FE
:100B80000C4C03682468A34208D04B68046864686E
:100B900023444B6003681B680B6005E0054B1B6832
:100BA0000B6001E003680B60884200D0016010BD5B
:100BB000640000206C0000202DE9F04104460D4641
:100BC00016461F464FF0000865602461B5420CD8F8
:100BD000F01BA169884202D34FF0010811E0211DEA
:100BE0000948006800F08CFB0BE0BE4204D2BD4215
:100BF00002D34FF0010804E0211D0448006800F012
:100C00007FFB4046BDE8F081480000204400002002
:100C100070B5054600F08EFBA86B08B9012400E012
:100C2000002400F0C9FB204670BD000070B50546E9
:100C30000E460E480068C068C468201D00F030FBF6
:100C400094F8240000F0040028B1324629462046DA
:100C500000F0E4F805E094F8240000F0FE0084F8C9
:100C600024002046216A884770BD0000440000200F
:100C70007FB579E00198002876DB039C606908B9AC
:100C8000012000E0002010B9201D00F009FB68469B
:100C900000F0F0F8054601980A2863D2DFE800F07A
:100CA0006205072E365206082F3700BF00BF00BF6F
:100CB00094F8240040F0010084F824000298A2690E
:100CC000811803462A462046FFF776FFA8B194F81C
:100CD000240000F0040038B10298A26981182A4665
:100CE000204600F09BF805E094F8240000F0FE0098
:100CF00084F824002046216A884734E000BF94F835
:100D0000240000F0FE0084F824002CE000BF94F8DA
:100D1000240040F0010084F824000298A061A0693A
:100D200008B1012000E0002020B940F25E3113A09C
:100D300000F0D2FAA06941192B462A462046FFF757
:100D40003BFF10E094F8240000F0020018B92046A0
:100D500000F068FB05E094F8240000F0FE0084F841
:100D6000240000E000BF00BF002201A90D48006878
:100D700000F020FF00287FF47DAF7FBD2E2E5C4D5C
:100D80006964646C6577617265735C46726565520F
:100D9000544F535C7372635C74696D6572732E6338
:100DA000000000004C000020F8B505460C4600F09D
:100DB00011FD684600F05EF80646009820BB44B975
:100DC000B54206D801F0C8F931462846FFF72EFF94
:100DD0001CE03CB10E480068006808B9012000E042
:100DE00000200446A91B22460A48006800F0C0FB08
:100DF00001F0B2F950B94FF0805007490860BFF3D5
:100E00004F8FBFF36F8F01E001F0A6F9F8BD00002E
:100E1000480000204C00002004ED00E070B50446BE
:100E20000D46164604E0A06905442046216A88471D
:100E3000A06941192B4632462046FFF7BDFE002827
:100E4000F1D170BD09480068006808B9012000E0D0
:100E5000002020B14FF0FF300549086005E003484D
:100E60000068C068006802490860704708000020F8
:100E70003400002070B5044600F0E2FF0546074844
:100E80000068854204D200F00BF80120206001E0E8
:100E90000020206001480560284670BD54000020F5
:100EA00070B508E00D480068C06804684FF0FF3175
:100EB0002046FFF7BBFE09480068006808B901201A
:100EC00000E000200028EDD00448056804480068D0
:100ED000024908600248056070BD0000440000201F
:100EE000480000200B480068401C08B9012000E0C1
:100EF000002018B9EC2108A000F0EEF900BF502046
:100F000080F31188BFF34F8FBFF36F8F00BF00BF17
:100F1000FEE70000580000202E2E5C4D6964646CD2
:100F20006577617265735C4672656552544F535CB8
:100F3000706F727461626C655C525644535C4152CE
:100F40004D5F434D34465C706F72742E6300000039
:100F500008B500BF6846FFF7E7FC04462046009945
:100F6000FFF722FFFFF784FEF4E770B5044600F0B8
:100F7000E1F994F9455010E0606A08B9012000E0F9
:100F8000002038B904F1240001F04AF818B100F04B
:100F90005BFB00E003E0681E45B2002DECDC00BF07
:100FA000FF2084F8450000F007FA00F0C3F994F937
:100FB000445010E0206908B9012000E0002048B941
:100FC00004F1100001F02CF808B100F03DFB681EA0
:100FD00045B200E001E0002DECDC00BFFF2084F80A
:100FE000440000F0E9F970BD2DE9F04705464FF0E7
:100FF000000800F0EFFB3E48006808B9FFF7A8FCC6
:1010000075B105F00700C0F11009C9F1FF30A84221
:1010100001D2012000E0002008B94D4400E0002585
:10102000012000EBE57000284CD0002D4AD031485B
:101030000068854246D8304E3046046801E02646B6
:1010400024686068A84202D220680028F7D12848A6
:101050000068844236D0306800F1080820683060AB
:101060006068401B102812D9671907F0070008B9FB
:10107000012000E0002018B9DC2120A000F02CF9AC
:101080006068401B786065603846FFF761FD19496C
:1010900060680968081A174908600846006824490A
:1010A0000968884203D213480068214908606068D3
:1010B00040F000406060002020601E480068401C36
:1010C0001C49086001F048F8B8F1000F01D100F0A8
:1010D000FBF808F0070008B9012000E0002020B963
:1010E0004FF48E7105A000F0F7F84046BDE8F08798
:1010F0006C00002070000020640000202E2E5C4D4B
:101100006964646C6577617265735C46726565528B
:10111000544F535C706F727461626C655C4D656DA9
:101120004D616E675C686561705F342E630000001E
:101130007400002078000020001F4FF080730360CF
:10114000001F21F001030360001F054B03601438EA
:101150000260001F6FF00203036020387047000038
:10116000E50E0008074A02EB9011D1F8001800F0D4
:101170001F0301229A401143024B03EB9012C2F865
:10118000001870470030024008B5002000213F4A97
:10119000126842F480323D4B1A6000BF401C3B4A4B
:1011A000126802F4003119B94FF6FF729042F5D17E
:1011B000364A126802F4003232B900BF334A12686C
:1011C00002F40032002AF9D0304A4032126842F06C
:1011D00080522E4B40331A602D4A126842F440422E
:1011E0002B4B1A60294A08321268284B08331A60C0
:1011F0001A46126842F400421A601A46126842F413
:10120000A0521A60234A1B1F1A601A1F126842F06C
:1012100080721B1F1A6000BF1C4A126802F0007225
:10122000002AF9D01A4A126842F48032184B1A6028
:1012300000BF174A526802F48032002AF9D0144ADB
:10124000126842F40032124B1A6000BF104A526812
:1012500002F40032002AF9D00C4A083212680092D7
:10126000009A22F003020092009A42F002020092D9
:10127000064B0833009A1A6000BF044A083212680D
:1012800002F00802002AF8D008BD00000038024031
:10129000007000401954400710B5FFF775FF10BDEE
:1012A00001460A69D1E901309860D1E9010358602B
:1012B0005068884201D18868506000200861106839
:1012C000401E106010687047FFF762F900BFFEE72C
:1012D000FFF75EF900BFFEE7FFF75AF900BFFEE730
:1012E00000F1080141604FF0FF31816000F1080119
:1012F000C1600161002101607047002101617047F8
:1013000010B502460B685C1C0CB9106907E002F1CD
:10131000080000E04068446824689C42FAD94468A8
:101320004C604C68A160886041600A611468641C6C
:10133000146010BD10B500BF502080F31188BFF3BA
:101340004F8FBFF36F8F00BF0B480068401C0A49E6
:1013500008600846006801280CD108480068C0B23F
:1013600008B9012000E0002020B940F2B91104A022
:10137000FFF7B2FF10BD00005800002004ED00E0B0
:101380002E2E5C4D6964646C6577617265735C4692
:1013900072656552544F535C706F727461626C6514
:1013A0005C525644535C41524D5F434D34465C7031
:1013B0006F72742E6300000010B50B48006820B9EE
:1013C0004FF4E07109A0FFF787FF07480068401E4F
:1013D000054908600846006820B9002080F311889C
:1013E00000BF00BF10BD0000580000202E2E5C4D35
:1013F0006964646C6577617265735C467265655299
:10140000544F535C706F727461626C655C525644E9
:10141000535C41524D5F434D34465C706F72742E85
:101420006300000070B506463546002E2FD0083DFB
:101430002C466068C00F20B940F22F1114A0FFF7AE
:101440004BFF206808B9012000E0002020B94FF4CC
:1014500098710FA0FFF740FF6068C00FB8B1206817
:10146000A8B9606820F00040606000F0B3F9154949
:10147000606809680844134908602046FFF768FB64
:1014800011480068401C1049086000F065FE70BDFE
:101490002E2E5C4D6964646C6577617265735C4681
:1014A00072656552544F535C706F727461626C6503
:1014B0005C4D656D4D616E675C686561705F342E73
:1014C00063000000700000207C00002000204FF02E
:1014D000E02108618861064800684FF47A71B0FB2A
:1014E000F1F0401E4FF0E02148610720086170478D
:1014F000000000202DE9F04105460F46002625B9E1
:1015000040F6D82110A0FFF7E7FEBFB1002412E09B
:10151000164800EBC4004068A84203D1134800EB12
:10152000C4060AE036B9114850F8340010B90F4823
:1015300000EBC406641C082CEAD300BF0EB1376070
:101540007560BDE8F08100002E2E5C4D6964646C0E
:101550006577617265735C4672656552544F535C82
:101560007372635C71756575652E63007001002090
:101570002DE9F04105460E4617462C46FFF7DAFEE8
:1015800094F94400401C10B9002084F8440094F9F8
:101590004500401C10B9002084F84500FFF70CFFFF
:1015A000A06B28B93A46314604F1240000F07AF8DD
:1015B0002046FFF7DAFCBDE8F081000070B5044674
:1015C0000025A4B10F48006808B9012000E0002000
:1015D00020B940F21C510CA0FFF77EFE00F0FAF893
:1015E00000212046FFF75AF800F0B6FD05463DB948
:1015F0004FF080500D490860BFF34F8FBFF36F8FDE
:1016000070BD0000400000202E2E5C4D6964646CAB
:101610006577617265735C4672656552544F535CC1
:101620007372635C7461736B732E630004ED00E08E
:101630000349096801600349096841607047000077
:101640002C0000201800002001200149086070478C
:101650002800002070B504460D4624B940F60E411E
:1016600006A0FFF739FE0E48016818312046FFF743
:1016700047FE01212846FFF711F870BD2E2E5C4D64
:101680006964646C6577617265735C467265655206
:10169000544F535C7372635C7461736B732E63009D
:1016A0000400002070B504460E46154624B940F6E5
:1016B000444111A0FFF710FE606818490968C8612D
:1016C0001649826809680A621449096818318268F3
:1016D00051601249096818318160104909688C62AB
:1016E0002168491C21600DB14FF0FF362946304674
:1016F000FEF7D4FF70BD00002E2E5C4D6964646C53
:101700006577617265735C4672656552544F535CD0
:101710007372635C7461736B732E6300040000204A
:101720001CB51B4800210B468022CDE9001019A1F1
:101730001A4800F041FB0446012C02D100F0D4FD10
:101740000446012C15D100BF502080F31188BFF34F
:101750004F8FBFF36F8F00BF4FF0FF30104908600D
:1017600001201049086000200F49086000F0A8F827
:101770000AE0601C08B1012000E0002020B940F61A
:1017800012010AA0FFF7A8FD114800681CBD000067
:101790003800002049444C4500000000C109000801
:1017A0003400002020000020180000202E2E5C4D68
:1017B0006964646C6577617265735C4672656552D5
:1017C000544F535C7372635C7461736B732E63006C
:1017D0003C00002002480068401C01490860704736
:1017E0004000002070B52848006818B10120274942
:1017F000086047E000202549086025480068046B20
:101800004FF0A5352068B0F1A53F0BD16068B0F16D
:10181000A53F07D1A068B0F1A53F03D1E068B0F1C2
:10182000A53F05D01A48016834310068FFF750FD24
:1018300018480068B0FA80F0C0F11F0404EB84007F
:10184000154951F8200008B1012000E0002020B91E
:1018500040F6F63111A0FFF73FFD04EB84010E4A7C
:1018600002EB810041684968416000F1080142686B
:101870008A4202D14168496841604168C968044AA6
:10188000116000BF70BD0000400000202800002053
:10189000040000201C000020800000202E2E5C4D43
:1018A0006964646C6577617265735C4672656552E4
:1018B000544F535C7372635C7461736B732E63007B
:1018C0001CB54D4800684D49884201D0012000E018
:1018D000002020B94FF4A37149A0FFF7FDFC464852
:1018E00000684649491E884201D0012000E00020DE
:1018F00020B940F2471142A0FFF7EEFC4E4C2046C3
:1019000000780190FF20214608700846007800907A
:101910009DF8000000F0F0009DF80010884201D111
:10192000012000E0002020B94FF4B07134A0FFF78F
:10193000D3FC9DF8000000F05000404908700720DB
:101940003F49086009E03E480068401E3C49086085
:101950009DF800004006000E00909DF8000000F089
:1019600080008028EFD036480068C0F107000428C6
:1019700001D1012000E0002020B94FF4BA7120A06D
:10198000FFF7AAFC2E480068C0F10700042801D127
:10199000012000E0002020B940F27D1118A0FFF7DF
:1019A0009BFC27480068000225490860084600881B
:1019B00000F4E06008602049019808700E4820306B
:1019C000006840F470000C49203108600846006847
:1019D00040F070400860FFF779FD00201949086069
:1019E000FEF700FC1848006840F0404016490860C7
:1019F000FEF7E4FB00201CBD00ED00E071C20F41CA
:101A00002E2E5C4D6964646C6577617265735C460B
:101A100072656552544F535C706F727461626C658D
:101A20005C525644535C41524D5F434D34465C70AA
:101A30006F72742E6300000000E400E05C00002080
:101A4000600000205800002034EF00E02DE9F8434A
:101A500005460E4617460024E5B1601EB0FBF5F0C2
:101A6000B04217D305FB06F010F1490F12D805FB61
:101A700006F909F14800FFF7B7FA044684B1A04619
:101A800008F148083B464246314628460094FEF796
:101A9000ABFF05E024B94FF4F27103A0FFF71CFC83
:101AA0002046BDE8F88300002E2E5C4D6964646C0E
:101AB0006577617265735C4672656552544F535C1D
:101AC0007372635C71756575652E63002DE9F04175
:101AD00005460E4601272C4624B94FF497712BA0DA
:101AE000FFF7FAFB002C42D0E06B00283FD04FF00C
:101AF000FF31E06BB1FBF0F0216C884237D3FFF788
:101B000019FCD4E90F12206801FB0200A06000203C
:101B1000A06320686060E06B401E226C216800FBBF
:101B20000211E160FF2084F8440084F845009EB96A
:101B3000206908B9012000E00020A8B904F11000D4
:101B400000F06EFA80B14FF0805019490860BFF381
:101B50004F8FBFF36F8F07E004F11000FFF7C0FB5A
:101B600004F12400FFF7BCFBFFF726FC00E0002790
:101B70000FB1012000E0002020B940F2631103A062
:101B8000FFF7AAFB3846BDE8F08100002E2E5C4D21
:101B90006964646C6577617265735C4672656552F1
:101BA000544F535C7372635C71756575652E630089
:101BB00004ED00E02DE9F74183B005460E464FF0F5
:101BC00000082C4624B940F26B514AA0FFF784FB71
:101BD0000EB9206C08B9012000E0002020B940F2C5
:101BE0006F5144A0FFF778FB00F01AF908B9059887
:101BF00008B9012000E0002020B940F274513DA056
:101C0000FFF76AFB00BFFFF795FBA76BF7B1314603
:101C10002046FEF76BFE781EA063206908B90120FC
:101C200000E0002060B904F1100000F0F9F938B1CB
:101C30004FF0805038490860BFF34F8FBFF36F8F6C
:101C4000FFF7BAFB012006B0BDE8F081059818B98E
:101C5000FFF7B2FB0020F6E7B8F1000F04D101A8AE
:101C6000FFF7E6FC4FF00108FFF7A6FBFFF7B2FD18
:101C7000FFF760FB94F94400401C10B9002084F881
:101C8000440094F94500401C10B9002084F8450038
:101C9000FFF792FB05A901A800F040F8F0B9204633
:101CA000FEF7B6FFA0B104F124000599FFF7D2FCBE
:101CB0002046FFF75AF900F04FFA0028A3D14FF061
:101CC000805015490860BFF34F8FBFF36F8F9AE7BD
:101CD0002046FFF74AF900F03FFA94E72046FFF765
:101CE00044F900F039FA2046FEF792FF00288AD026
:101CF0000020A8E72E2E5C4D6964646C65776172E4
:101D000065735C4672656552544F535C7372635CD5
:101D100071756575652E630004ED00E070B50546CC
:101D20000C4625B940F6EF4118A0FFF7D5FA24B9C3
:101D30004FF44F6115A0FFF7CFFAFFF7FBFA1C48ED
:101D4000036868681A1A2068401C08B9002619E060
:101D5000184928680968884206D06868984203D8FC
:101D60000126002020600DE02068904207D92068FD
:101D7000801A20602846FFF75BFC002602E0002066
:101D800020600126FFF718FB304670BD2E2E5C4DFB
:101D90006964646C6577617265735C4672656552EF
:101DA000544F535C7372635C7461736B732E630086
:101DB000180000202C0000202DE9FF4F85B0804640
:101DC00089461746DDE912ABB800FFF70DF9064664
:101DD00076B15420FFF708F904462CB1542120466F
:101DE000FEF767FA266304E03046FFF71BFB00E0CE
:101DF00000247CB10020CDE900ABCDE902403A4699
:101E000049464046089BFEF703FE2046FEF7A6FC27
:101E1000012501E04FF0FF35284609B0BDE8F08FFD
:101E20000549096809B9012005E00449096809B9AB
:101E3000022000E000207047200000204000002029
:101E40000149086870470000180000202DE9F041A2
:101E50004FF000085E48006800287DD15D480068AA
:101E6000451C5C480560E5B95B480068006808B936
:101E7000012000E0002020B940F6B72157A0FFF76D
:101E80002BFA554807685E480068534908605C486B
:101E900007605C480068401C5A490860FEF7D2FFA2
:101EA00000BF59480068854277D300BF4A480068A0
:101EB000006808B9012000E0002020B14FF0FF3099
:101EC0005149086068E044480068C068C4686668B2
:101ED000B54202D24C4806605EE06069D4E9021265
:101EE0008A60D4E902214A60211D42688A4201D1F8
:101EF000E1684160002262610168491E0160A06AD8
:101F000098B1A06AD4E907128A60D4E907214A602F
:101F100004F1180142688A4201D1216A416000221D
:101F2000A2620168491E016000BF94F82C100120D4
:101F3000884036490968084334490860E16A01EB82
:101F40008101334A02EB81014868A0608268E26047
:101F5000211D8268516000E031E08160E16A01EB9F
:101F600081012B4A02EB81026261E16A01EB81018E
:101F7000274A52F82110491CE26A02EB8202244BE4
:101F800043F822102349E06A0968C96A88428DD95A
:101F90004FF001088AE700E000BF1E480068C06AF1
:101FA00000EB80001A4951F82000012801D94FF0B8
:101FB00001081948006808B14FF0010804E017480B
:101FC0000068401C154908604046BDE8F0810000EB
:101FD0004000002018000020080000202E2E5C4D3C
:101FE0006964646C6577617265735C46726565529D
:101FF000544F535C7372635C7461736B732E630034
:102000000C0000202C000020340000201C000020C8
:102010008000002004000020280000202400002070
:1020200070B50646F068C46824B940F674413BA018
:10203000FFF752F9A06AD4E907128A60D4E90721B0
:102040004A6004F1180142688A4201D1216A416064
:102050000022A2620168491E016039480068002818
:102060003DD16069D4E902128A60D4E902214A6054
:10207000211D42688A4201D1E1684160002262610B
:102080000168491E016094F82C10012088402D49F8
:10209000096808432B490860E16A01EB81012A4A7B
:1020A00002EB81014868A0608268E260211D8268BD
:1020B00051608160E16A01EB8101234A02EB8102F8
:1020C0006261E16A01EB81011F4A52F82110491C4B
:1020D000E26A02EB82021C4B43F8221010E01B491B
:1020E0004868E0618268226204F1180182685160E8
:1020F0008160164AA26211460968491C116000BF3E
:102100001349E06A0968C96A884204D90125012097
:102110001049086000E00025284670BD2E2E5C4D59
:102120006964646C6577617265735C46726565525B
:10213000544F535C7372635C7461736B732E6300F2
:10214000400000201C0000208000002034010020FE
:10215000040000202800002070B50024002650480C
:10216000006820B940F685014EA0FFF7B5F8FFF7EB
:10217000E1F84B480068401E49490860084600687D
:1021800000287DD150480068002879D05BE04F4896
:10219000C068C468A06AD4E907128A60D4E907213C
:1021A0004A6004F1180142688A4201D1216A416003
:1021B0000022A2620168491E01606069D4E902122E
:1021C0008A60D4E902214A60211D42688A4201D115
:1021D000E1684160002262610168491E016094F873
:1021E0002C10012088403A490968084338490860A2
:1021F000E16A01EB8101374A02EB81014868A06086
:102200008268E260211D826851608160E16A01EBB1
:102210008101304A02EB81026261E16A01EB8101D6
:102220002C4A52F82110491CE26A02EB8202294B27
:1022300043F822102849E06A0968C96A884202D333
:102240000120264908602148006808B9012000E003
:10225000002000289BD00CB1FEF7F4FD2048056853
:1022600065B100BFFFF7F2FD10B101201B49086006
:102270006D1E002DF6D1002019490860174800E0B6
:1022800009E0006838B10126300716490860BFF33D
:102290004F8FBFF36F8FFFF78FF8304670BD000090
:1022A000400000202E2E5C4D6964646C657761727D
:1022B00065735C4672656552544F535C7372635C20
:1022C0007461736B732E63001400002034010020CE
:1022D0001C000020800000200400002028000020B6
:1022E0002400002004ED00E01CB50024FEF7A8FA4D
:1022F0000B48006858B10B48062100234FF4807248
:10230000CDE9001008A10A48FFF756FD044624B99C
:1023100040F2191107A0FEF7DFFF20461CBD0000A8
:102320004C00002050000020546D72205376630052
:10233000510F00082E2E5C4D6964646C65776172E4
:1023400065735C4672656552544F535C7372635C8F
:1023500074696D6572732E63000000000001000057
:102360000002000000040000000800008C230008A8
:102370000000002080000000C00400080C240008B9
:102380008000002058050100D0040008007A030AEC
:10239000000000000000000000000000000000003D
:1023A000000000000000000000000000000000002D
:1023B000000000000000000000000000000000001D
:1023C0000000000000000000060000000000000007
:1023D00000000000000000000000000000000000FD
:1023E00000000000AAAAAAAA000000000000000045
:1023F00000000000000000000000000000000000DD
:0C240000000000000000000000000000D0
:040000050800018965
:00000001FF
